:020000040800F2
:10000000002800200D0D00085D0D00085D0D0008A2
:100010005D0D00085D0D00085D0D0008000000008A
:100020000000000000000000000000005D0D00085E
:100030005D0D0008000000005D0D00085D0D00086A
:100040005D0D00085D0D00085D0D00085D0D0008E8
:100050005D0D00085D0D00085504000879040008D6
:100060009D040008C1040008E50400085D0D0008B7
:100070005D0D00085D0D00085D0D00085D0D0008B8
:100080005D0D00085D0D00085D0D00085D0D0008A8
:100090005D0D00085D0D00085D0D000809050008F4
:1000A000C90B0008810B0008ED0B0008A50B000828
:1000B0005D0D00085D0D00085D0D00085D0D000878
:1000C0005D0D00085D0D00085D0D0008C908000801
:1000D0005D0D0008110C0008250C0008390C000803
:1000E000B10500085D0D0008000000005D0D00086E
:1000F0005D0D00085D0D00085D0D00085D0D000838
:100100005D0D00085D0D00085D0D00085D0D000827
:100110005D0D00085D0D00085D0D00085D0D000817
:100120005D0D00085D0D00085D0D00085D0D000807
:1001300010B5054C237833B9044B13B10448AFF321
:1001400000800123237010BD00000020000000008B
:10015000600E000808B5034B1BB103490348AFF319
:10016000008008BD0000000004000020600E0008B0
:1001700080B500AF01220121064800F07DFB01207F
:1001800000F02EFC00220121024800F075FB00BFA8
:1001900080BD00BF0008014080B582B000AF0346BB
:1001A000FB7100220021304800F066FB012000F0C6
:1001B00017FCFB791B09DBB203F00103DBB21A4623
:1001C0000221294800F058FBFB795B09DBB203F000
:1001D0000103DBB21A460321234800F04DFBFB79F3
:1001E0009B09DBB203F00103DBB21A4604211E486F
:1001F00000F042FBFB79DB09DBB21A4605211A4805
:1002000000F03AFBFFF7B4FFFB7903F00103DBB228
:100210001A460221144800F02FFBFB795B08DBB281
:1002200003F00103DBB21A4603210F4800F024FB60
:10023000FB799B08DBB203F00103DBB21A46042111
:10024000094800F019FBFB79DB08DBB203F001037E
:10025000DBB21A460521044800F00EFBFFF788FFC9
:1002600000BF0837BD4680BD0008014080B500AF23
:10027000142000F0B5FB264B00221A80244B0422E8
:100280009A70234B0222DA702149224800F00AFAC0
:10029000012000F08FFB1E4B01221A801C491D48D3
:1002A00000F000FA0F2000F085FB194B04229A7031
:1002B000174B0222DA70164B02221A801449154895
:1002C00000F0F0F9124B03221A801149114800F096
:1002D000E9F90F4B04221A800D490E4800F0E2F9AB
:1002E0000B4B05221A800A490A4800F0DBF901206D
:1002F00000F060FB0220FFF74FFF2820FFF74CFFC4
:100300000A2000F057FB0E20FFF746FF00BF80BD1C
:100310001C0000200008014080B500AF0120FFF75D
:100320003BFF00BF80BD000080B582B000AF034638
:10033000FB7101220021304800F09EFA0A2000F0F3
:1003400039FBFB791B09DBB203F00103DBB21A4670
:100350000221294800F090FAFB795B09DBB203F037
:100360000103DBB21A460321234800F085FAFB792A
:100370009B09DBB203F00103DBB21A4604211E48DD
:1003800000F07AFAFB79DB09DBB21A4605211A483C
:1003900000F072FAFFF7ECFEFB7903F00103DBB229
:1003A0001A460221144800F067FAFB795B08DBB2B9
:1003B00003F00103DBB21A4603210F4800F05CFA98
:1003C000FB799B08DBB203F00103DBB21A46042180
:1003D000094800F051FAFB79DB08DBB203F00103B6
:1003E000DBB21A460521044800F046FAFFF7C0FECA
:1003F00000BF0837BD4680BD0008014080B584B00D
:1004000000AF78600023FB7306E07B685A1C7A60BB
:100410001B781846FFF788FF7B681B78002BF4D108
:1004200000BF00BF1037BD4680BD80B592B000AFA1
:10043000786007F108030A221946786800F0A7FCE3
:1004400007F108031846FFF7D9FF00BF4837BD463C
:1004500080BD000080B500AF054B1B689847054B79
:100460005B69044A43F00103536100BF80BD00BFD4
:10047000200000200004014080B500AF054B5B6800
:100480009847054B5B69044A43F00203536100BF80
:1004900080BD00BF200000200004014080B500AFF7
:1004A000054B9B689847054B5B69044A43F004037E
:1004B000536100BF80BD00BF200000200004014048
:1004C00080B500AF054BDB689847054B5B69044A74
:1004D00043F00803536100BF80BD00BF200000202F
:1004E0000004014080B500AF054B1B699847054BE0
:1004F0005B69044A43F01003536100BF80BD00BF35
:10050000200000200004014080B500AF264B5B694D
:1005100003F02003002B08D0234B5B69224A43F0F1
:1005200020035361214B5B6998471F4B5B6903F0C4
:100530004003002B08D01C4B5B691B4A43F040036F
:1005400053611A4B9B699847174B5B6903F0800313
:10055000002B08D0144B5B69134A43F080035361AE
:10056000124BDB699847104B5B6903F48073002BD7
:1005700008D00D4B5B690C4A43F4807353610B4BFD
:100580001B6A9847084B5B6903F40073002B08D083
:10059000054B5B69044A43F400735361034B5B6A88
:1005A000984700BF80BD00BF00040140200000202C
:1005B00080B500AF2D4B5B6903F48063002B08D03E
:1005C0002A4B5B69294A43F480635361284B9B6A39
:1005D0009847264B5B6903F40063002B08D0234B3C
:1005E0005B69224A43F400635361214BDB6A9847FD
:1005F0001E4B5B6903F48053002B08D01B4B5B69D7
:100600001A4A43F480535361194B1B6B9847174B9D
:100610005B6903F40053002B08D0144B5B69134A49
:1006200043F400535361124B5B6B98470F4B5B696C
:1006300003F48043002B08D00C4B5B690B4A43F456
:10064000804353610A4B9B6B9847084B5B6903F4EB
:100650000043002B08D0054B5B69044A43F4004378
:100660005361034BDB6B984700BF80BD0004014022
:100670002000002080B485B000AF0346FB80FB88DB
:10068000072B03D8FB889B009BB204E0FB88083B48
:100690009BB29B009BB2FB81FB8918461437BD4679
:1006A00080BC704790B585B000AF786039607B68DA
:1006B0006B4A934206D16B4B9B696A4A43F0040331
:1006C00093612AE07B68684A934206D1654B9B6937
:1006D000644A43F0080393611FE07B68634A9342D6
:1006E00006D1604B9B695F4A43F01003936114E0AD
:1006F0007B685F4A934206D15A4B9B69594A43F043
:100700002003936109E07B685A4A934205D1554B17
:100710009B69544A43F0400393613B681B889BB23A
:10072000072B01D87B6801E07B680433FB603B68E2
:100730001B889BB21846FFF79DFF03461A460F23FE
:100740009340DA43FB681B681A40FB681A603B68F9
:100750009B78DBB2002B0ED03B689B78DBB2012B81
:1007600009D03B689B78DBB2022B04D03B689B78B6
:10077000DBB2032B56D13B689B78DBB2032B1CD139
:100780003B681B889BB21846FFF774FF03461A4666
:10079000082303FA02F2FB681B681A43FB681A601D
:1007A0003B681B889BB21A4601239340DA437B685F
:1007B000DB681A407B68DA604DE03B689B78DBB20F
:1007C000022B1CD13B681B889BB21846FFF752FFD7
:1007D00003461A46082303FA02F2FB681B681A4311
:1007E000FB681A603B681B889BB21A46012303FA18
:1007F00002F27B68DB681A437B68DA602BE03B68B7
:100800009B78DBB29C003B681B889BB21846FFF7C5
:1008100031FF034604FA03F2FB681B681A43FB68C6
:100820001A6018E03B689B78DBB2043B9B003A6897
:10083000D278D2B243EA02043B681B889BB21846C6
:10084000FFF718FF034604FA03F2FB681B681A431C
:10085000FB681A6000BF00BF1437BD4690BD00BFE3
:100860000008014000100240000C0140001001404F
:10087000001401400018014080B483B000AF7860DC
:100880000B467B8013467B707B78DBB2012B0BD150
:100890007B889BB21A46012303FA02F27B68DB686D
:1008A0001A437B68DA600AE07B889BB21A46012310
:1008B0009340DA437B68DB681A407B68DA6000BFEC
:1008C0000C37BD4680BC704780B582B000AF3B1D81
:1008D0000549184600F00CF8044BDB683879984756
:1008E00000BF0837BD4680BD003001405C000020DD
:1008F00080B483B000AF786039603B689B68C3F315
:100900000003DBB2002B0FD07A6813786FF300037B
:1009100013707A68137843F0020313703A681379FE
:100920006FF38613137115E03B689B68C3F34003B4
:10093000DBB2002B0ED07A68137843F001031370FA
:100940007A6813786FF3410313703A6813796FF381
:10095000C713137100BF0C37BD4680BC7047000041
:1009600080B400AF0F4B1B680E4A43F001031360C5
:100970000D4B07221A600D4B4CF250321A604FF0AB
:1009800080431B684FF0804243F00103136000BFB7
:10099000074B1B68002BFBD000BF00BFBD4680BCCF
:1009A000704700BF1C100240280000402C0000408F
:1009B0001000004080B483B000AF7860074B002285
:1009C0001A6000BF054B1A687B689A42FAD300BFD1
:1009D00000BF0C37BD4680BC704700BF24000040FC
:1009E00080B584B000AF78600023FB600023FB601B
:1009F00006E04FF47A70FFF7DDFFFB680133FB6020
:100A0000FA687B689A42F4DB00BF00BF1037BD462E
:100A100080BD80B400AFFEE780B584B000AF7860E1
:100A2000064B1B68FB6007F10C0319460448FFF7EF
:100A300039FE00BF1037BD4680BD00BF780E0008EC
:100A40000008014090B585B000AFF860B9607A60E9
:100A5000454ABB6814460FCB84E80F00434AFB6845
:100A60001360FB68424A934206D1424B9B69414A5C
:100A700043F40063936109E0FB683F4A934205D168
:100A80003C4B9B693B4A43F400539361BB681B8812
:100A90001A46FB689A62BB685B881A46FB68DA6292
:100AA000BB689B881A46FB681A63BB685B7A032B9A
:100AB0002DD1BB68DB881A46FB685A637B681B78BC
:100AC00003F00703D9B2FA68936961F306139361DF
:100AD0007B685B7803F00103D9B2FA68936961F32C
:100AE000C30393617B689B7803F00103D9B2FA6872
:100AF000136A61F341031362FA68536C43F40043D1
:100B00005364FA68136A43F00103136202E0FFF7CB
:100B100080FF00BFF868FFF77FFFFA68136843F0B3
:100B200001031360BB681B7A002B0BD1FA68D368F2
:100B300043F00203D360114B1B68104A43F000637B
:100B400013600CE000BFFB681B69C3F34003DBB21A
:100B5000002BF8D0FA6813696FF34103136100BFEB
:100B60001437BD4690BD00BF7C0000208C000020E3
:100B7000002C0140001002400034014000E100E080
:100B800080B500AF054BDB689847054B1A681369C1
:100B90006FF30003136100BF80BD00BF7C00002025
:100BA0008C00002080B500AF054BDB689847054BF3
:100BB0001A6813696FF34103136100BF80BD00BF62
:100BC0007C0000208C00002080B500AF054BDB6866
:100BD0009847054B1A6813696FF30003136100BF50
:100BE00080BD00BF7C0000208C00002080B500AFDD
:100BF000054BDB689847054B1A6813696FF30003D0
:100C0000136100BF80BD00BF7C0000208C0000206D
:100C100080B500AF024BDB68984700BF80BD00BFC6
:100C20009000002080B500AF024BDB69984700BF01
:100C300080BD00BF9000002080B500AF024BDB6A92
:100C4000984700BF80BD00BF9000002080B400AF77
:100C5000044B1B680133034A136000BFBD4680BCD0
:100C6000704700BFC000002090B589B000AF204B96
:100C70009B691F4A43F0040393611E4B1B68FB6191
:100C800007F11C0319461C48FFF70CFD1B4B1B68A2
:100C9000FB6107F11C0319461748FFF703FD00220B
:100CA00009211548FFF7E8FD01220A211248FFF744
:100CB000E3FDFFF755FEFFF7D9FA114B07F10804E2
:100CC0000FCB84E80F0007233B7100237B710023C7
:100CD000BB713A1D07F1080319460A48FFF7B2FE37
:100CE000FFF71AFB084B1B681846FFF79EFBF7E758
:100CF000001002407C0E000800080140800E000831
:100D0000840E0008002C0140C00000200D488546DC
:100D1000AFF300800C480D490D4A002302E0D4587F
:100D2000C4500433C4188C42F9D30A4A0A4C002335
:100D300001E013600432A242FBD300F06DF8FFF72C
:100D400093FFFEE7002800200000002000000020A4
:100D5000C40E000800000020C4000020FEE7931E1F
:100D6000222B10B50C4604D900231C460B702046DC
:100D700010BD0A2A09D1002807DA2D230B700121A2
:100D80004042214400F006F8F1E70021F9E7FFF7BF
:100D9000E6BF0000F0B58BB005460B466E461D4C15
:100DA00004F1200C374620686168083403C76445A5
:100DB0003E46F7D1217920683971911E2229386089
:100DC0004FF0000104D919700B4618460BB0F0BD66
:100DD000581E8446B5FBF2F702FB175628366E44C0
:100DE00016F8286C0C460CF8016F2E46B2423D46B0
:100DF00001F10101EED900225A541919A51AAA428B
:100E0000E3DA10F8015F0E780132067001F801593B
:100E1000F4E700BF940E000870B500260C4D0D4C91
:100E2000641BA410A64209D100F01AF800260A4D4E
:100E30000A4C641BA410A64205D170BD55F8043BB2
:100E400098470136EEE755F8043B98470136F2E73C
:100E5000BC0E0008BC0E0008BC0E0008C00E000846
:100E6000F8B500BFF8BC08BC9E467047F8B500BF97
:080E7000F8BC08BC9E46704767
:100E780008000601090004020A0004021F035300C7
:100E880000005300000300004D0C000830313233DD
:100E98003435363738396162636465666768696A0C
:100EA8006B6C6D6E6F707172737475767778797A12
:040EB8000000000036
:040EBC0055010008D4
:040EC00031010008F4
:0400000508000D0DD5
:00000001FF
